:100000000C9462000C948A000C948A000C948A0070
:100010000C948A000C948A000C948A000C94BA0206
:100020000C948A000C948A000C948A000C948A0028
:100030000C948A000C948A000C948A000C948A0018
:100040000C9450020C948A000C948A000C948A0040
:100050000C948A000C948A000C948A000C948A00F8
:100060000C948A000C948A000000000024002700F1
:100070002A0000000000250028002B0004040404CE
:100080000404040402020202020203030303030342
:10009000010204081020408001020408102001021F
:1000A00004081020000000080002010000030407FB
:1000B00000000000000000000000000023002600F7
:1000C0002900FE0B11241FBECFEFD8E0DEBFCDBF4D
:1000D00011E0A0E0B1E0ECE4FDE102C005900D927A
:1000E000A230B107D9F721E0A2E0B1E001C01D9232
:1000F000AF3EB207E1F710E0C2E6D0E004C02197BE
:10010000FE010E948F0EC136D107C9F70E94450437
:100110000C94A40E0C9400003FB7F8948091EA016F
:100120009091EB01A091EC01B091ED0126B5A89B57
:1001300005C02F3F19F00196A11DB11D3FBFBA2F79
:10014000A92F982F8827820F911DA11DB11DBC01D9
:10015000CD0142E0660F771F881F991F4A95D1F79E
:1001600008958F929F92AF92BF92CF92DF92EF92BB
:10017000FF920E948C004B015C0188ECC82ED12CB0
:10018000E12CF12C0E948C00DC01CB01881999092B
:10019000AA09BB09883E9340A105B10558F021E0AA
:1001A000C21AD108E108F10888EE880E83E0981E93
:1001B000A11CB11CC114D104E104F10419F7FF9092
:1001C000EF90DF90CF90BF90AF909F908F90089569
:1001D0008F929F92AF92BF92CF92DF92EF92FF9257
:1001E0000F931F93CF93DF93FC01C081D1812091A6
:1001F000E0013091E101C217D3070CF04BC09E0122
:10020000220F331FE091DE01F091DF01E20FF31FB7
:1002100080809180C170DD27F1E0CF27209719F40D
:1002200004E610E002C00CE91FEF7A015B016C01EB
:10023000040F151FB801C4010E949D03892B99F476
:100240000E0D1F1DB801C4010E949D03892B71F47E
:10025000B8016E0D7F1DC4010E949D03892BE9F03A
:1002600023E030E005C021E030E002C022E030E0D1
:10027000F501808191810196821793073CF0F50189
:1002800011821082F6018081918101969183808391
:10029000CE0105C081E090E002C08FEF9FEFDF91BB
:1002A000CF911F910F91FF90EF90DF90CF90BF9073
:1002B000AF909F908F900895833081F028F4813023
:1002C00099F08230A1F008958730A9F08830B9F014
:1002D0008430D1F4809180008F7D03C080918000B4
:1002E0008F7780938000089584B58F7702C084B59E
:1002F0008F7D84BD08958091B0008F7703C0809179
:10030000B0008F7D8093B00008951F93CF93DF934B
:10031000282F30E0F901EC55FF4F8491F901E057A7
:10032000FF4FD491F901E458FF4FC491CC23C9F099
:10033000162F81110E945C01EC2FF0E0EE0FFF1FE1
:10034000EE58FF4FA591B4918FB7F894111105C0E5
:100350009C91ED2FE095E92302C0EC91ED2BEC93FD
:100360008FBFDF91CF911F910895CF93DF9390E0DE
:10037000FC01E057FF4F2491FC01E458FF4F8491AA
:10038000882361F190E0880F991FFC01E859FF4F25
:10039000C591D491FC01EE58FF4FA591B491611124
:1003A00009C09FB7F8948881209582238883EC91B7
:1003B0002E230BC0623061F49FB7F8943881822FEE
:1003C000809583238883EC912E2B2C939FBF06C0AE
:1003D0008FB7F894E8812E2B28838FBFDF91CF91C0
:1003E00008951F93CF93DF93182FEB0161E00E94D4
:1003F000B501209711F460E004C0CF3FD10539F476
:1004000061E0812FDF91CF911F910C948501E12F45
:10041000F0E0EC55FF4FE491E330F9F048F4E130BF
:10042000B9F0E230A1F584B5806284BDC8BD34C0A6
:10043000E730E9F0E83019F1E43049F580918000C7
:10044000806280938000D0938B00C0938A0024C088
:1004500084B5806884BDC7BD1FC08091800080685E
:1004600080938000D0938900C093880015C080914C
:10047000B00080688093B000C093B3000DC080913D
:10048000B00080628093B000C093B40005C0C03853
:10049000D1050CF0B5CFAFCFDF91CF911F9108956B
:1004A0001F920F920FB60F9211242F933F938F93A9
:1004B0009F93AF93BF938091E6019091E701A09144
:1004C000E801B091E9013091E50123E0230F2D37D8
:1004D00020F40196A11DB11D05C026E8230F029648
:1004E000A11DB11D2093E5018093E6019093E701E2
:1004F000A093E801B093E9018091EA019091EB01AA
:10050000A091EC01B091ED010196A11DB11D809368
:10051000EA019093EB01A093EC01B093ED01BF9140
:10052000AF919F918F913F912F910F900FBE0F90A0
:100530001F901895EF92FF921F93CF93DF93182F80
:100540007B01C0E0D0E0CE15DF0574F461E0812FBF
:100550000E9485010E94B10060E0812F0E94850108
:100560000E94B1002196EFCFDF91CF911F91FF90B4
:10057000EF9008951F920F920FB60F9211242F93B0
:100580003F934F935F936F937F938F939F93AF931B
:10059000BF93CF93DF93EF93FF932091030130E05C
:1005A000F901EC55FF4F8491F901E057FF4FD491C9
:1005B000F901E458FF4FC491CC23A1F081110E94AE
:1005C0005C01EC2FF0E0EE0FFF1FE854FF4FA59108
:1005D000B491EC91ED2331E020E009F430E0832F79
:1005E000922F02C080E090E0209107013091080135
:1005F0002F5F3F4F309308012093070120910601A0
:10060000253618F026E020930201209102012430C3
:10061000D9F128F4223069F02330D9F060C02530B8
:1006200009F453C0263009F05AC021E02093D301C9
:1006300053C0009709F053C0209107013091080181
:100640002436310508F443C01092D30110920601FC
:100650001DC08130910509F042C0E091060121E002
:100660002E0F20930601F0E0209107013091080140
:10067000EE0FFF1FEE5FFE4F3087278310920801B9
:100680001092070124E029C00097B9F4E091060117
:1006900021E02E0F20930601F0E020910701309118
:1006A0000801EE0FFF1FEE5FFE4F30872783109289
:1006B00008011092070123E010C02091070130913A
:1006C00008012536310558F007C0009741F4109213
:1006D00008011092070103C025E020930201209138
:1006E00005012223B9F0892B51F48091040188235C
:1006F00021F08091040161E009C02D9A0BC0809126
:100700000401882331F08091040160E00E9485019A
:1007100001C02D98FF91EF91DF91CF91BF91AF91E3
:100720009F918F917F916F915F914F913F912F9109
:100730000F900FBE0F901F901895CF92DF92EF92FF
:10074000FF92CF93DF93EC01072E000C880B990BDF
:100750000E94200D6B017C0120E030E040E45FE36B
:100760000E94D00D20E030E048E452E40E94760C74
:100770000E94E80CC617D707D4F020E030E040EA2A
:100780005FE3C701B6010E94D00D20E030E048E4ED
:1007900052E40E94760C20E030E040E85FE30E94E3
:1007A000050C0E94E80C21E06C177D070CF420E09A
:1007B000822F90E0DF91CF91FF90EF90DF90CF906C
:1007C00008958091EE01882359F060E086E00E9450
:1007D000850160E087E00E9485011092EE010BC068
:1007E00061E086E00E94850161E087E00E9485016A
:1007F00081E08093EE010C94B10080910001909112
:1008000001018A3A9105C1F08F3F910561F0803571
:100810009105F1F48FEF90E0909301018093000136
:1008200063E070E011C08AEA90E090930101809348
:10083000000162E070E008C080E590E09093010163
:100840008093000161E070E08DE090E00C949A02EA
:100850000895CF93DF93EC0160E084E00E9485016E
:1008600060E085E00E948501C130D10529F0229722
:1008700049F461E085E002C061E084E0DF91CF915E
:100880000C948501DF91CF910895CF93DF93CDB77D
:10089000DEB72C970FB6F894DEBF0FBECDBF7894AD
:1008A00084B5826084BD84B5816084BD85B5826075
:1008B00085BD85B5816085BD80916E008160809326
:1008C0006E0010928100809181008260809381008F
:1008D000809181008160809381008091800081609F
:1008E000809380008091B10084608093B1008091FA
:1008F000B00081608093B00080917A008460809322
:100900007A0080917A00826080937A0080917A00E8
:10091000816080937A0080917A00806880937A0069
:100920001092C100F89482E08093B0008093B100EF
:1009300094E69093B3001092B20080937000789484
:1009400080930201109206018091030160E00E94F1
:10095000B50161E083E00E94B50161E082E00E94A0
:10096000B50161E084E00E94B50161E085E00E948C
:10097000B50161E086E00E94B50161E087E00E9478
:10098000B50161E08DE00E94B50110E2212E312C0D
:1009900044244A94542C320129E031E03093DF01A1
:1009A0002093DE018091060190E09093E101809315
:1009B000E0018091D30190E09093E3018093E20104
:1009C00080910201853009F06CC280910B019091F9
:1009D0000C01885891098D35910588F480910601A4
:1009E000843041F480910D0190910E0180974797DA
:1009F00008F4D1C180910601843408F05AC2809174
:100A000006018A3108F44FC08091090190910A01D2
:100A1000843F914068F41092DD011092DC01409215
:100A2000D8015092D9016092DA017092DB0159C06D
:100A300080910B0190910C0185974B97A0F5EFE009
:100A4000F1E082E090E0C12CD12C7601AC014F5F47
:100A50005F4F2091060130E0421753075CF4DF013D
:100A600012972D913C91275031092730310508F418
:100A700068C2CA010197959587959093DD0180938F
:100A8000DC010C972CF41092DD011092DC010BC0FC
:100A9000C092D801D092D901E092DA01F092DB0144
:100AA00084E090E08EC1809106018A3108F44CC048
:100AB0008091090190910A018032934008F4ABCFF4
:100AC00080910B0190910C01C697869708F456C24D
:100AD0003BC0C092D801D092D901E092DA01F092E5
:100AE000DB018BE090E06DC120813181255231091D
:100AF0002B31310508F052C2CC0CDD1CEE1CFF1C62
:100B00006894C0F802963496AC014F5F5F4F209115
:100B1000060130E04217530754F4DF0112972D917C
:100B20003C912C5031092B303105F0F2CA0101976C
:100B3000959587959093DD018093DC010C974CF699
:100B40001092DD011092DC01809106018232E8F101
:100B500080910B0190910C0106970797B0F5EFE09B
:100B6000F1E082E090E0C12CD12C76019C012F5F56
:100B70003F4F4091060150E0241735076CF4DF0128
:100B800012974D915C9111974E5151094731510582
:100B900008F428C210C2C9010197959587959093D2
:100BA000DD018093DC0140972CF41092DD0110925E
:100BB000DC010BC0C092D801D092D901E092DA01D9
:100BC000F092DB018CE090E0FCC01C821B8281E093
:100BD00090E09A838983809106018D3008F46BC080
:100BE00049E753E0BE016D5F7F4FCE0101960E9441
:100BF000E800892B09F05FC049E753E0BE016D5F53
:100C00007F4FCE0101960E94E800019709F053C082
:100C100049E753E0BE016D5F7F4FCE0101960E9410
:100C2000E800892B09F047C0812C912C540100E089
:100C300010E08091060190E029813A812817390758
:100C40005CF549E753E0BE016D5F7F4FCE01019631
:100C50000E94E8007C0149E753E0BE016D5F7F4FD1
:100C6000CE0101960E94E800F1E0EF16F10449F48C
:100C7000892B09F5880C991CAA1CBB1C689480F868
:100C800008C0EF28C1F40197B1F4880C991CAA1C84
:100C9000BB1C0F5F1F4FCDCF1093DD010093DC0114
:100CA0008092D8019092D901A092DA01B092DB0132
:100CB00081E090E086C01C821B8281E090E09A83F4
:100CC00089838091E0019091E101181619060CF0DA
:100CD00058C0E091DE01F091DF0182E090E09A835C
:100CE00089838281938189974E9708F04AC0A3E057
:100CF000B0E0BA83A983848195810B970A9708F0A5
:100D000040C04CEB51E0BE016D5F7F4FCE010196BC
:100D10000E94E800892BA9F54CEB51E0BE016D5F04
:100D20007F4FCE0101960E94E800019751F5812C7A
:100D3000912C540100E010E029813A818091E0017A
:100D40009091E101281739070CF089C14CEB51E073
:100D5000BE016D5F7F4FCE0101960E94E8006C01DD
:100D60000330110509F045C14CEB51E0BE016D5F48
:100D70007F4FCE0101960E94E800C816D90609F4FB
:100D800038C1E091DE01F091DF0182819381C69745
:100D90008697E0F0EFC180910F01909110010997C3
:100DA000099708F027CE1092DD011092DC014092E5
:100DB000D8015092D9016092DA017092DB0183E090
:100DC00090E09093D5018093D4014AC084819581AD
:100DD0004B97459708F0CEC1DF0116967F0126ECB0
:100DE000E20EF11C20E030E040E050E060E070E016
:100DF00080E090E00D911C91119709501109083085
:100E0000110508F0B7C112960D911C91139701516D
:100E100011090D30110508F031C101E00E94580E92
:100E200021601496AE15BF0529F72093D8013093A1
:100E3000D9014093DA015093DB0100E20E94730E66
:100E40002093D6013093D70185E090E09093D501AF
:100E50008093D40180E390E09093DD018093DC01E6
:100E600080E090E00E9429048091D8019091D901FE
:100E7000A091DA01B091DB018C359105A105B10596
:100E800009F00AC160E070E083E00E94F10160E0D7
:100E900070E082E00E94F10182E0809302011092F2
:100EA000060180E090E0892B09F476CD0E940000D5
:100EB00073CD80910D0190910E01825491098E970E
:100EC00008F09DCD80E090E040E050E0BA01FC01E8
:100ED000E15FFE4F208131812950310929303105F0
:100EE00008F08DCDFC01EF5EFE4F2081318127514E
:100EF000310922313105C0F4440F551F661F771F99
:100F0000416004968038910511F73092DD012092FE
:100F1000DC014093D8015093D9016093DA017093BA
:100F2000DB01A3E0B0E065C42081318126503109A6
:100F30002730310508F063CD440F551F661F771F1A
:100F4000E0CF20813181235131092F30310578F0F4
:100F5000208131812A5031092930310508F0A3CD93
:100F6000CC0CDD1CEE1CFF1C029634966FCDCC0C15
:100F7000DD1CEE1CFF1C6894C0F8F6CF80910D01BB
:100F800090910E01C697869708F0DECDE1E1F1E081
:100F900083E090E0C12CD12C7601B6CD2081318147
:100FA0002C5031092A30310508F0CECDCC0CDD1C97
:100FB000EE1CFF1CA7CD4D915C914C5051094B305C
:100FC000510508F002CECC0CDD1CEE1CFF1C40814C
:100FD00051813496435051094530510508F0DBCD1D
:100FE0000296C4CDCC0CDD1CEE1CFF1C6894C0F82E
:100FF000EECF4CEB51E0BE016D5F7F4FCE0101960D
:101000000E94E8007C010330110569F44CEB51E0CB
:10101000BE016D5F7F4FCE0101960E94E800E81689
:10102000F90609F0AECEC114D10459F4EA94EF28C0
:1010300009F0A7CE880C991CAA1CBB1C689480F8E8
:101040000BC0CA94CD2809F09CCEEF2809F099CEA8
:10105000880C991CAA1CBB1C0F5F1F4F6DCE1093F0
:10106000DD010093DC018092D8019092D901A09219
:10107000DA01B092DB0182E090E0A3CE12960D91EE
:101080001C911397045011090530110508F072C026
:1010900001E00E94580EC5CE8D359105A105B10520
:1010A00088F588359105A105B10529F46091000105
:1010B00070910101E9CE89359105A105B10580F452
:1010C0008D309105A105B10519F40E94FD03E4CE10
:1010D0000F97A105B10509F0DFCE0E94E103DCCE38
:1010E0008A359105A105B10519F481E090E007C0AA
:1010F0008B359105A105B10558F082E090E00E9482
:101100002904CACE89359105E1E0AE07B10559F44D
:10111000609100017091010182E00E94F10160E0A4
:1011200070E083E0B7CE8A359105F1E0AF07B105F5
:1011300098F48F30910521E0A207B10571F288354E
:10114000910531E0A307B10509F4B0CF0D97A14097
:10115000B10509F0A1CEB9CF8B359105F1E0AF070C
:10116000B10559F210F28C359105A140B10509F491
:1011700089CE92CE80910601893370F1828193816C
:10118000895791098335910508F46FC125C0D901AC
:1011900012966D917C9113976651710961317105B9
:1011A00008F08FC1D701C601880F991FAA1FBB1F66
:1011B0006C017D016894C0F84E5F5F4F2C5F3F4F1C
:1011C0004B33510509F460C1D9016D917C916A508E
:1011D000710969307105D8F280910601823231F4CB
:1011E000828193810A97099708F47BC18281938158
:1011F0008957910983359105D0F480910601813298
:10120000B0F084819581CA97899788F49F012A5FFD
:101210003F4FC12CD12C760143E050E0D9016D91B4
:101220007C916A5071096930710508F478C1828136
:1012300093818C549109C59778F48091060184308C
:1012400031F4848195818097479708F4CEC18091CD
:101250000601843408F0B0C180910601863460F143
:10126000828193810C970B9708F410C225C0D90195
:1012700012966D917C9113976E51710967317105CA
:1012800008F01FC2D701C601880F991FAA1FBB1FF4
:101290006C017D016894C0F84E5F5F4F2C5F3F4F3B
:1012A0004534510509F41CC2D9016D917C916C50F3
:1012B00071096B307105D8F280910601883578F19B
:1012C00082819381855891098B35910508F423C259
:1012D00026C0BC016F5F7F4FD8014D915C91475094
:1012E00051094730510508F025C2220F331F2160F4
:1012F00002960C5F1F4F4091060150E04450510987
:10130000841795070CF01FC2A80142505109DA0159
:101310004D915C914950510948305105D0F280916E
:1013200006018032E1F48281938106970697B8F432
:10133000848195810997099790F49F012A5F3F4F17
:10134000BF01625C7F4FC12CD12C7601D9014D9138
:101350005C91465051094630510508F410C2209165
:10136000E0013091E10138872F83263031050CF4FC
:1013700093CD8F010A5F1F4F83E090E09E838D83A2
:1013800095ECC92E9DE9D92E9CE1E92E91E8F92E24
:10139000D8016D917C91F8013497A080B18080E0F4
:1013A00090E00E941E0D69877A878B879C87B50124
:1013B00080E090E00E941E0D4B015C012DEC3CECA6
:1013C0004CE45FE30E94D00D9B01AC0169857A85F6
:1013D0008B859C850E94710C87FD19C02DEC3CEC1F
:1013E0004CE45FE369857A858B859C850E94D00DEE
:1013F0009B01AC01C501B4010E94710CE82F880F5C
:10140000FF0BEE27FF0FEE1FFF27319602C0E0E033
:10141000F0E0A701960163E971E080E091E00E94AD
:101420003D0E6F01FF0FEE08FF08C626D726E826FF
:10143000F926ED81FE813196FE83ED830E5F1F4F0D
:101440002F813885E217F30709F0A2CFC092D801A7
:10145000D092D901E092DA01F092DB013092DD0105
:101460002092DC018FEF9FEFACCC84819581CA97ED
:10147000899708F0B1CE9F012A5F3F4FC12CD12C34
:10148000760143E050E0A0CE9F012A583F4FD9019A
:101490002D913C912A5031092930310508F09CCE1C
:1014A0002CE130E03093DD012093DC01C092D801C3
:1014B000D092D901E092DA01F092DB018AE090E06B
:1014C00080CCD90112966D917C9113976650710969
:1014D0006730710508F080CECC0CDD1CEE1CFF1CC3
:1014E0006BCE20910601CF01820F911D820F911DBD
:1014F000DC0112978D919C910A97099708F076CE9E
:101500001092DD011092DC014092D8015092D90175
:101510006092DA017092DB0186E090E052CCD90152
:1015200012966D917C911397665171096131710525
:1015300098F5D701C601880F991FAA1FBB1F6C0120
:101540007D016894C0F84E5F5F4F2C5F3F4F433280
:10155000510509F063CE9F012A5B3F4FD9012D91C0
:101560003C912A5031092930310508F060CEE0E184
:10157000F0E0F093DD01E093DC01C092D801D0925D
:10158000D901E092DA01F092DB0126E030E03093FD
:10159000D5012093D40164CCD90112966D917C9130
:1015A0001397665071096730710508F040CECC0C76
:1015B000DD1CEE1CFF1CC7CF8481958189549109E5
:1015C000C39708F049CE9F012A5F3F4FBF016A577A
:1015D0007F4FC12CD12C7601D9014D915C9149509E
:1015E000510949305105B0F037CE8681978109976E
:1015F000099708F02CCE1092DD011092DC01409288
:10160000D8015092D9016092DA017092DB01A7E013
:10161000B0E0EFC0D90112964D915C9113974651FD
:1016200051094131510510F5D701C601880F991FA5
:10163000AA1FBB1F6C017D016894C0F82C5F3F4F4F
:101640002617370749F63092DD012092DC01C0925F
:10165000D801D092D901E092DA01F092DB01E7E003
:10166000F0E0F093D501E093D401FACBD9011296C2
:101670004D915C911397465051094730510508F040
:10168000EBCDCC0CDD1CEE1CFF1CD8CF84819581EA
:101690000997099708F010CE868197818C974F970C
:1016A00008F00ACE8085918589974D9708F004CE81
:1016B0009F01265F3F4FC12CD12C760145E050E0C1
:1016C000F3CD12966D917C91139769507109693031
:1016D000710508F0F1CDCC0CDD1CEE1CFF1CDCCD3F
:1016E0009F0126573F4FD9012D913C912C50310934
:1016F0002B30310508F0E0CD3092DD012092DC0185
:10170000C092D801D092D901E092DA01F092DB01C7
:1017100088E090E056CB84819581825491098E9720
:1017200008F0FDCD8F01045C1F4F8DE190E020E0BB
:1017300030E0E1CDD8014D915C91485151094231E1
:101740005105D0F0CB010197959587959093DD01D8
:101750008093DC018A970CF4E2CDC901330FAA0B08
:10176000BB0B8093D8019093D901A093DA01B09379
:10177000DB0189E090E025CB220F331FB9CDD901E1
:1017800012964D915C91139749515109433151057E
:1017900028F112964D915C911397495051094930A7
:1017A000510508F0DCCDCC0CDD1CEE1CFF1C2C5FC1
:1017B0003F4F2617370709F0C9CDEEE0F0E0F09370
:1017C000DD01E093DC01C092D801D092D901E09212
:1017D000DA01F092DB018FE090E0F3CAD701C60195
:1017E000880F991FAA1FBB1F6C017D016894C0F868
:1017F000DECFB093D501A093D40132CBE2E0F1E08B
:101800008BE08183138208955058BB27AA270E943A
:101810001C0C0C94960D0E94880D38F00E948F0DC0
:1018200020F039F49F3F19F426F40C94850D0EF442
:10183000E095E7FB0C947F0DE92F0E94A70D58F36C
:10184000BA17620773078407950720F079F4A6F5A5
:101850000C94C90D0EF4E0950B2EBA2FA02D0B01A0
:10186000B90190010C01CA01A0011124FF27591BE5
:1018700099F0593F50F4503E68F11A16F040A22FEB
:10188000232F342F4427585FF3CF4695379527955C
:10189000A795F0405395C9F77EF41F16BA0B620B5B
:1018A000730B840BBAF09150A1F0FF0FBB1F661FA2
:1018B000771F881FC2F70EC0BA0F621F731F841FE5
:1018C00048F4879577956795B795F7959E3F08F00B
:1018D000B0CF9395880F08F09927EE0F97958795CD
:1018E00008950E945B0D08F481E008950E948A0C1F
:1018F0000C94960D0E948F0D58F00E94880D40F0B8
:1019000029F45F3F29F00C947F0D51110C94CA0DFE
:101910000C94850D0E94A70D68F39923B1F355230C
:1019200091F3951B550BBB27AA27621773078407F2
:1019300038F09F5F5F4F220F331F441FAA1FA9F388
:1019400035D00E2E3AF0E0E832D091505040E69576
:10195000001CCAF72BD0FE2F29D0660F771F881FD7
:10196000BB1F261737074807AB07B0E809F0BB0BCA
:10197000802DBF01FF2793585F4F3AF09E3F5105DE
:1019800078F00C947F0D0C94CA0D5F3FE4F3983E01
:10199000D4F3869577956795B795F7959F5FC9F7C7
:1019A000880F911D9695879597F90895E1E0660F48
:1019B000771F881FBB1F621773078407BA0720F0C1
:1019C000621B730B840BBA0BEE1F88F7E09508952A
:1019D0000E94EF0C6894B1110C94CA0D08950E94F6
:1019E000AF0D88F09F5798F0B92F9927B751B0F0F5
:1019F000E1F0660F771F881F991F1AF0BA95C9F793
:101A000014C0B13091F00E94C90DB1E008950C945A
:101A1000C90D672F782F8827B85F39F0B93FCCF30D
:101A2000869577956795B395D9F73EF4909580950F
:101A3000709561957F4F8F4F9F4F0895E89409C02F
:101A400097FB3EF490958095709561957F4F8F4FF1
:101A50009F4F9923A9F0F92F96E9BB279395F69507
:101A6000879577956795B795F111F8CFFAF4BB0F85
:101A700011F460FF1BC06F5F7F4F8F4F9F4F16C0E9
:101A8000882311F096E911C0772321F09EE8872F73
:101A9000762F05C0662371F096E8862F70E060E02F
:101AA0002AF09A95660F771F881FDAF7880F9695A8
:101AB000879597F90895990F0008550FAA0BE0E84C
:101AC000FEEF16161706E807F907C0F01216130600
:101AD000E407F50798F0621B730B840B950B39F440
:101AE0000A2661F0232B242B252B21F408950A26A6
:101AF00009F4A140A6958FEF811D811D089597F9E6
:101B00009F6780E870E060E008959FEF80EC0895A3
:101B100000240A94161617061806090608950024CC
:101B20000A9412161306140605060895092E039446
:101B3000000C11F4882352F0BB0F40F4BF2B11F4BA
:101B400060FF04C06F5F7F4F8F4F9F4F089557FD19
:101B50009058440F551F59F05F3F71F04795880F1B
:101B600097FB991F61F09F3F79F0879508951216B2
:101B700013061406551FF2CF4695F1DF08C016165E
:101B800017061806991FF1CF86957105610508940F
:101B90000895E894BB2766277727CB0197F9089526
:101BA0000E94E30D0C94960D0E94880D38F00E945F
:101BB0008F0D20F0952311F00C947F0D0C94850D62
:101BC00011240C94CA0D0E94A70D70F3959FC1F3C8
:101BD000950F50E0551F629FF001729FBB27F00DDB
:101BE000B11D639FAA27F00DB11DAA1F649F662730
:101BF000B00DA11D661F829F2227B00DA11D621F7F
:101C0000739FB00DA11D621F839FA00D611D221F38
:101C1000749F3327A00D611D231F849F600D211D1C
:101C2000822F762F6A2F11249F5750409AF0F1F09F
:101C300088234AF0EE0FFF1FBB1F661F771F881F08
:101C400091505040A9F79E3F510580F00C947F0DB4
:101C50000C94CA0D5F3FE4F3983ED4F386957795D4
:101C60006795B795F795E7959F5FC1F7FE2B880FAE
:101C7000911D9695879597F90895DB018F939F9312
:101C80000E944D0EBF91AF91A29F800D911DA39F09
:101C9000900DB29F900D112408950E94950EA59F5E
:101CA000900DB49F900DA49F800D911D1124089557
:101CB0000F93083090F0982F872F762F652F542F91
:101CC000432F322F22270850F4CF220F331F441FF7
:101CD000551F661F771F881F991F0A95B2F70F912E
:101CE000089597FB10F8169400080F93083098F0A9
:101CF0000850232F342F452F562F672F782F892FE9
:101D0000902DF4CF0594979587957795679557957E
:101D10004795379527950A95AAF70F910895EE0FE5
:101D2000FF1F0590F491E02D0994A29FB001B39F8D
:101D3000C001A39F700D811D1124911DB29F700DD4
:0C1D4000811D1124911D0895F894FFCF1F
:021D4C00FF0096
:00000001FF
